:020000040800F2
:100000000080002011110008A9100008AB100008A2
:10001000AD100008AF100008B1100008000000008B
:10002000000000000000000000000000B310000805
:10003000B510000800000000B7100008B910000853
:1000400061110008611100086111000861110008C8
:1000500061110008611100086111000861110008B8
:1000600061110008611100086111000861110008A8
:100070006111000861110008611100086111000898
:100080006111000861110008611100080000000002
:1000900000000000000000000000000061110008E6
:1000A0006111000861110008611100086111000868
:1000B00000000000000000000000000061110008C6
:1000C0006111000861110008611100086111000848
:1000D00061110008611100086111000800000000B2
:1000E000611100086111000800000000000000001C
:1000F0000000000000000000000000006111000886
:100100000000000000000000611100080000000075
:100110000000000000000000611100080000000065
:1001200061110008611100086111000861110008E7
:100130006111000800000000000000000000000045
:1001400000000000000000000000000000000000AF
:1001500061110008611100086111000861110008B7
:10016000000000000000000000000000000000008F
:10017000000000000000000000000000000000007F
:10018000611100086111000800000000000000007B
:1001900000000000611100080000000000000000E5
:1001A000000000000000000000000000000000004F
:1001B00000000000000000000000000061110008C5
:0801C000611100086111000843
:1001C80010B5054C237833B9044B13B10448AFF389
:1001D80000800123237010BD0C00002000000000E7
:1001E800AC11000808B5034B1BB103490348AFF332
:1001F800008008BD0000000010000020AC110008BD
:1002080053B94AB9002908BF00281CBF4FF0FF3175
:100218004FF0FF3000F072B9ADF1080C6DE904CE73
:1002280000F006F8DDF804E0DDE9022304B07047C9
:100238002DE9F047089E04468846002B4BD18A4298
:10024800154667D9B2FA82F24AB1C2F1200701FA1B
:1002580002F320FA07F7954047EA030894404FEA6B
:10026800154E230CB8FBFEF71FFA85FC0EFB17880A
:1002780043EA084307FB0CF1994209D9EB1807F147
:10028800FF3080F01B81994240F21881023F2B44D5
:100298005B1AA4B2B3FBFEF00EFB103344EA03442E
:1002A80000FB0CFCA44509D92C1900F1FF3380F0A0
:1002B8000781A44540F2048102382C4440EA0740F3
:1002C800A4EB0C0400271EB1D4400023C6E9004368
:1002D8003946BDE8F0878B4209D9002E00F0EB8043
:1002E8000027C6E9000138463946BDE8F087B3FA69
:1002F80083F7002F47D18B4202D3824200F2FA8063
:10030800841A61EB030301209846002EE0D0C6E969
:100318000048DDE702B9FFDEB2FA82F2002A40F0B7
:100328008F80491B4FEA154E1FFA85F80127B1FB4C
:10033800FEFC230C0EFB1C1143EA014308FB0CF1E5
:10034800994207D9EB180CF1FF3002D2994200F21A
:10035800CD808446591AA3B2B1FBFEF00EFB1014EF
:1003680043EA044408FB00F8A04507D92C1900F11A
:10037800FF3302D2A04500F2B6801846A4EB080469
:1003880040EA0C409FE7C7F1200CBB4022FA0CFE64
:100398004EEA030E01FA07F420FA0CF521FA0CF3E1
:1003A8004FEA1E482543B3FBF8F92C0C08FB193318
:1003B8001FFA8EFA44EA034309FB0AF49C4202FA44
:1003C80007F200FA07F10BD91EEB030309F1FF301E
:1003D80080F087809C4240F28480A9F1020973442E
:1003E8001B1BADB2B3FBF8F008FB103345EA03441E
:1003F80000FB0AFAA24508D91EEB040400F1FF33FA
:100408006BD2A24569D90238744440EA0940A0FB7E
:100418000289A4EB0A044C45C2464B4654D351D03A
:10042800002E69D0B1EB0A0564EB030404FA0CFC56
:10043800FD40FC404CEA0505C6E90054002747E7A3
:10044800C2F1200320FA03F7954001FA02F021FADD
:1004580003F34FEA154E3843010CB3FBFEF71FFABE
:1004680085F80EFB173341EA034107FB08F38B427B
:1004780004FA02F407D9691807F1FF3C2FD28B421E
:100488002DD9023F2944CB1A81B2B3FBFEF00EFBF3
:10049800103341EA034100FB08F38B4207D969187E
:1004A80000F1FF3C17D28B4215D902382944C91AEA
:1004B80040EA07473BE73746304609E70746E7E69D
:1004C8001846FBE64145ABD2B8EB020A69EB0E02CF
:1004D80001381346A4E76046E9E7184695E76746FA
:1004E800D1E781467CE702382C4447E7ACF1020C9F
:1004F8002B442FE7384608E73746E9E6704700BF40
:1005080010B504460E4B18784FF47A73B3FBF0F32A
:100518000C4A1068B0FBF3F000F088F868B90F2CAB
:1005280001D901200AE0002221464FF0FF3000F0F7
:1005380049F8034B5C60002000E0012010BD00BFBB
:10054800000000200800002008B50B4B1A6842F490
:1005580000721A601A6842F480621A601A6842F4DB
:1005680080721A60032000F01BF80020FFF7C8FF14
:1005780000F04CFD002008BD003C0240034A116811
:10058800034B1B780B441360704700BF2800002002
:1005980000000020014B1868704700BF28000020A9
:1005A800074AD36823F4E0631B041B0C000200F421
:1005B800E060184340F0BF6040F40030D0607047FE
:1005C80000ED00E030B4174BDB68C3F30223C3F13E
:1005D8000704042C28BF04241D1D062D18D9033B2D
:1005E8004FF0FF3505FA04F421EA0401994005FAB1
:1005F80003F322EA0303194300280BDB0901C9B2FC
:1006080000F1604000F5614080F8001330BC70478D
:100618000023E5E700F00F000901C9B2024B1954A5
:10062800F4E700BF00ED00E014ED00E00138B0F1A0
:10063800807F0AD2064B5860064AF02182F82310C0
:100648000020986007221A6070470120704700BF99
:1006580010E000E000ED00E0042805D0054A13682A
:1006680023F0040313607047024A136843F004033D
:100678001360704710E000E0704708B5FFF7FCFF13
:1006880008BD000000230F2B00F2BA80F0B482B03E
:1006980074E0846806EA040CCC68BC4044EA0C04A4
:1006A8008460446824EA02024C68C4F300149C4045
:1006B80014434460C26816408A68BA403243C26034
:1006C8004A6812F0805F56D0002201924D4A546C5D
:1006D80044F480445464526C02F480420192019ABA
:1006E8009C08A61C484A52F8267003F0030296009C
:1006F8000F22B24027EA0207444A904279D002F515
:100708008062904277D002F5806290426FD00722D3
:10071800B2403A4302343C4E46F824203C4A14681E
:10072800EA4302EA04064F6817F4803F01D045EA1D
:100738000406374C2660646802EA04064F6817F41A
:10074800003F01D045EA0406314C6660A46802EA1D
:1007580004064F6817F4801F01D045EA04062C4CA4
:10076800A660E46822404E6816F4001F01D045EAEE
:100778000402274CE26001330F2B3ED801229A4035
:100788000C6804EA0205AA42F5D14C68022C01D093
:10079800122C10D1DE08083650F826C003F00704E2
:1007A800A7000F24BC402CEA040C0C69BC4044EAA6
:1007B8000C0440F8264004685F000326BE40F64358
:1007C80006EA040C4C6804F00304BC4044EA0C0438
:1007D80004604C6804F1FF3CBCF1010F7FF659AF8F
:1007E800112C3FF456AF122C7FF464AF51E702226C
:1007F8008EE700228CE701228AE702B0F0BC70473E
:10080800704700BF00380240003801400000024035
:10081800003C014012B90904816170478161704749
:10082800264B9B6803F00C03042B44D0082B01D003
:10083800234870472DE9F04B204B5A6802F03F02DD
:100848005B6813F4800F13D01C4B5968C1F38811EF
:1008580000231C48A1FB0001FFF7D2FC174B5B6883
:10086800C3F3014301335B00B0FBF3F0BDE8F08B49
:10087800124B5B68C3F388131E4600275C010025F2
:10088800E41A65EB0705A90141EA9461A001001B80
:1008980061EB0501CB0043EA5073C400A01943EB98
:1008A80007018B0243EA905384022046194600232D
:1008B800FFF7A6FCD2E70348704700BF00380240A4
:1008C8000024F40040787D01002800F09D8070B578
:1008D80004464F4B1B6803F00F038B4209D2CBB27F
:1008E8004B4A1370136803F00F038B4201D00120A9
:1008F80070BD236813F0020F17D013F0040F04D053
:10090800444A936843F4E0539360236813F0080F54
:1009180004D0404A936843F4604393603D4A936827
:1009280023F0F003A068034393600D46236813F097
:10093800010F32D06368012B21D09A1E012A25D9D4
:10094800344A126812F0020F60D032498A6822F0E5
:10095800030213438B60FFF71DFE06462D4B9B6871
:1009680003F00C036268B3EB820F16D0FFF712FE98
:10097800801B41F288339842F0D90320B8E7254A12
:10098800126812F4003FE0D10120B1E7214A126851
:1009980012F0007FD9D10120AAE71D4B1B6803F094
:1009A8000F03AB4209D9EAB2194B1A701B6803F05E
:1009B8000F03AB4201D001209AE7236813F0040F1C
:1009C80006D0144A936823F4E053E1680B4393601C
:1009D800236813F0080F07D00E4A936823F4604386
:1009E800216943EAC1039360FFF71AFF094B9B682B
:1009F800C3F30313084AD35CD840084B186000209F
:100A0800FFF77EFD002073E70120704701206FE7A4
:100A1800003C024000380240C411000808000020D1
:100A2800014B1868704700BF0800002070B582B0FD
:100A38000446036813F0010F3BD0A74B9B6803F0F3
:100A48000C03042B2CD0A44B9B6803F00C03082B3D
:100A580021D06368B3F5803F4FD0B3F5A02F52D0B3
:100A68009D4B1A6822F480321A601A6822F4802298
:100A78001A606368002B50D0FFF78CFD0546964B33
:100A88001B6813F4003F14D1FFF784FD401B642852
:100A9800F5D903208AE1904B5B6813F4800FD8D016
:100AA8008D4B1B6813F4003F03D06368002B00F0E4
:100AB8007A81236813F0020F55D0874B9B6813F097
:100AC8000C0F3ED0844B9B6803F00C03082B33D0EB
:100AD800E368002B68D0814B01221A60FFF75AFDAA
:100AE80005467D4B1B6813F0020F54D1FFF752FDEA
:100AF800401B0228F5D9032058E1774A136843F4CC
:100B080080331360B5E7744B1A6842F480221A6088
:100B18001A6842F480321A60ABE7FFF73BFD0546DE
:100B28006D4B1B6813F4003FC3D0FFF733FD401B28
:100B38006428F5D9032039E1674B5B6813F4800F0B
:100B4800C6D1654B1B6813F0020F04D0E368012B74
:100B580001D001202AE1604A136823F0F8032169D3
:100B680043EAC1031360236813F0080F40D0636998
:100B780063B35B4B01221A60FFF70CFD0546564B29
:100B88005B6F13F0020F33D1FFF704FD401B0228FF
:100B9800F5D903200AE1504A136823F0F8032169C4
:100BA80043EAC1031360DEE74C4B00221A60FFF7EB
:100BB800F1FC0546484B1B6813F0020FD3D0FFF732
:100BC800E9FC401B0228F5D90320EFE0444B002242
:100BD8001A60FFF7DFFC05463F4B5B6F13F0020F0F
:100BE80006D0FFF7D7FC401B0228F5D90320DDE02B
:100BF800236813F0040F78D0374B1B6C13F0805F19
:100C080033D100230193344B1A6C42F080521A649A
:100C18001B6C03F080530193019B0125314B1B682A
:100C280013F4807F23D0A368012B34D0052B38D050
:100C3800294B1A6F22F001021A671A6F22F0040278
:100C48001A67A368002B36D0FFF7A4FC0646224B90
:100C58001B6F13F0020F47D1FFF79CFC801B41F27A
:100C680088339842F3D90320A0E00025D6E71D4A2F
:100C7800136843F480731360FFF78CFC0646194B26
:100C88001B6813F4807FCED1FFF784FC801B0228F9
:100C9800F5D903208AE0104A136F43F00103136764
:100CA800CFE70D4B1A6F42F004021A671A6F42F031
:100CB80001021A67C5E7FFF76DFC0646064B1B6F76
:100CC80013F0020F10D0FFF765FC801B41F2883348
:100CD8009842F3D9032069E00038024000004742F7
:100CE800800E474200700040E5B9A369002B5CD034
:100CF800304A926802F00C02082A59D0022B17D009
:100D08002D4B00221A60FFF745FC0446294B1B684F
:100D180013F0007F45D0FFF73DFC001B0228F5D9F2
:100D2800032043E0234A136C23F080531364DCE769
:100D3800214B00221A60FFF72DFC05461D4B1B684E
:100D480013F0007F06D0FFF725FC401B0228F5D9D9
:100D580003202BE0E369226A1343626A43EA8213A1
:100D6800A26A5208013A43EA0243E26A43EA02638A
:100D7800226B43EA02730F4A53600F4B01221A6039
:100D8800FFF708FC04460B4B1B6813F0007F06D1E5
:100D9800FFF700FC001B0228F5D9032006E000201D
:100DA80004E0002002E0012000E0002002B070BD55
:100DB8000120FBE7003802406000474230B589B0A7
:100DC80000240194144B1A6B42F004021A631A6B44
:100DD80002F004020192019A02941A6B42F0010295
:100DE8001A631B6B03F001030293029B0B4D22460F
:100DF8004FF480712846FFF70DFD4FF4807303937D
:100E08000123049305940223069303A92846FFF7B8
:100E180039FC09B030BD00BF00380240000802406C
:100E280010B5124C01224FF480712046FFF7F2FCF6
:100E380001224FF480712046FFF7ECFC01224FF4A9
:100E480080712046FFF7E6FC01224FF480712046AE
:100E5800FFF7E0FC052406E000224FF48071034808
:100E6800FFF7D8FC013C002CF6DC10BD000802405E
:100E780010B5052406E001224FF480710948FFF7F8
:100E8800C9FC013C002CF6DC064C00224FF48071B2
:100E98002046FFF7BFFC00224FF480712046FFF781
:100EA800B9FC10BD0008024038B50546172402E019
:100EB800FFF7B6FF013C002C07DD25FA04F313F019
:100EC800010FF5D0FFF7D4FFF4E738BD084B5860A1
:100ED80001221A6000229A60054B1B6803F0011377
:100EE800012BF9D0024B00221A609A60704700BFAC
:100EF80010E000E008B500224FF480710348FFF7C6
:100F080089FC40F28A20FFF7E1FF08BD0008024093
:100F1800FEE7000000B595B000220092294B196C3D
:100F280041F0805119641B6C03F080530093009BBF
:100F38000192254B196841F4404119601B6803F47C
:100F480040430193019B0223079301210A91102139
:100F58000B910D930E9208220F9264221092119316
:100F680004221292139307A8FFF760FD10BB0F230A
:100F7800029302230393002304934FF480520592B3
:100F88000693032102A8FFF79FFCB8B9FFF748FDB5
:100F98000E4BA3FB00308009FFF748FB0420FFF746
:100FA8005BFB002211464FF0FF30FFF70BFB15B03B
:100FB8005DF804FBB6210648FFF7AAFFC4210448E0
:100FC800FFF7A6FF0038024000700040D34D6210C2
:100FD800DC11000808B5FFF7B7FAFFF79BFFFFF72A
:100FE800EDFE4FF47F40FFF75FFF4FF47F00FFF700
:100FF8005BFFFFF77FFFFF20FFF756FF4FF47F40AF
:10100800FFF752FFFFF776FFEBE7000010B582B05D
:1010180000240094214B5A6C42F480425A645A6C62
:1010280002F480420092009A01941A6C42F08052B5
:101038001A641B6C03F080530193019B0320FFF794
:10104800AFFA224621466FF00B00FFF7BBFA2246A3
:1010580021466FF00A00FFF7B5FA224621466FF0E5
:101068000900FFF7AFFA224621466FF00400FFF7A8
:10107800A9FA224621466FF00300FFF7A3FA224699
:1010880021466FF00100FFF79DFA224621464FF0F6
:10109800FF30FFF797FA02B010BD00BF00380240DA
:1010A8007047FEE7FEE7FEE7FEE7704770477047C8
:1010B80008B5FFF763FAFFF7E0FA08BD0F49D1F862
:1010C800883043F47003C1F888300D4B1A6842F039
:1010D80001021A60002098601A6822F0847222F4D3
:1010E80080321A60074A5A601A6822F480221A600D
:1010F800D8604FF000638B60704700BF00ED00E0E0
:101108000038024010300024DFF834D0002103E01A
:101118000C4B5B58435004310B480C4B42189A4215
:10112800F6D30B4A02E0002342F8043B094B9A42EB
:10113800F9D3FFF7C3FF00F011F8FFF74BFF704733
:1011480000800020FC110008000000200C00002096
:101158000C0000202C000020FEE7000070B50D4EAA
:101168000D4CA41BA4100025A54209D10B4E0C4C14
:1011780000F018F8A41BA4100025A54205D170BDE5
:1011880056F8253098470135EEE756F82530984748
:101198000135F2E7F4110008F4110008F411000811
:1011A800F8110008F8B500BFF8BC08BC9E467047A7
:0C11B800F8B500BFF8BC08BC9E467047AC
:1011C40000000000000000000102030406070809F3
:1011D40000000000010203042E2E2F5372632F6DB2
:0811E40061696E2E630000003A
:0811EC004CF0FF7F0100000040
:0411F400ED01000801
:0411F800C901000821
:0C11FC0001000000100000000024F400BE
:0400000508001111CD
:00000001FF
